{
  "_format": "hh-sol-artifact-1",
  "contractName": "DAO",
  "sourceName": "contracts/DAO.sol",
  "abi": [
    {
      "inputs": [
        {
          "internalType": "contract Token",
          "name": "_token",
          "type": "address"
        },
        {
          "internalType": "uint256",
          "name": "_quorum",
          "type": "uint256"
        }
      ],
      "stateMutability": "nonpayable",
      "type": "constructor"
    },
    {
      "anonymous": false,
      "inputs": [
        {
          "indexed": false,
          "internalType": "uint256",
          "name": "id",
          "type": "uint256"
        }
      ],
      "name": "Finalize",
      "type": "event"
    },
    {
      "anonymous": false,
      "inputs": [
        {
          "indexed": false,
          "internalType": "uint256",
          "name": "id",
          "type": "uint256"
        },
        {
          "indexed": false,
          "internalType": "uint256",
          "name": "amount",
          "type": "uint256"
        },
        {
          "indexed": false,
          "internalType": "address",
          "name": "recipient",
          "type": "address"
        },
        {
          "indexed": false,
          "internalType": "address",
          "name": "creator",
          "type": "address"
        }
      ],
      "name": "Propose",
      "type": "event"
    },
    {
      "anonymous": false,
      "inputs": [
        {
          "indexed": false,
          "internalType": "uint256",
          "name": "id",
          "type": "uint256"
        },
        {
          "indexed": false,
          "internalType": "address",
          "name": "investor",
          "type": "address"
        }
      ],
      "name": "Vote",
      "type": "event"
    },
    {
      "inputs": [
        {
          "internalType": "string",
          "name": "_name",
          "type": "string"
        },
        {
          "internalType": "uint256",
          "name": "_amount",
          "type": "uint256"
        },
        {
          "internalType": "address payable",
          "name": "_recipient",
          "type": "address"
        }
      ],
      "name": "createProposal",
      "outputs": [],
      "stateMutability": "nonpayable",
      "type": "function"
    },
    {
      "inputs": [
        {
          "internalType": "uint256",
          "name": "_id",
          "type": "uint256"
        }
      ],
      "name": "finalizeProposal",
      "outputs": [],
      "stateMutability": "nonpayable",
      "type": "function"
    },
    {
      "inputs": [],
      "name": "proposalCount",
      "outputs": [
        {
          "internalType": "uint256",
          "name": "",
          "type": "uint256"
        }
      ],
      "stateMutability": "view",
      "type": "function"
    },
    {
      "inputs": [
        {
          "internalType": "uint256",
          "name": "",
          "type": "uint256"
        }
      ],
      "name": "proposals",
      "outputs": [
        {
          "internalType": "uint256",
          "name": "id",
          "type": "uint256"
        },
        {
          "internalType": "string",
          "name": "name",
          "type": "string"
        },
        {
          "internalType": "uint256",
          "name": "amount",
          "type": "uint256"
        },
        {
          "internalType": "address payable",
          "name": "recipient",
          "type": "address"
        },
        {
          "internalType": "uint256",
          "name": "votes",
          "type": "uint256"
        },
        {
          "internalType": "bool",
          "name": "finalized",
          "type": "bool"
        }
      ],
      "stateMutability": "view",
      "type": "function"
    },
    {
      "inputs": [],
      "name": "quorum",
      "outputs": [
        {
          "internalType": "uint256",
          "name": "",
          "type": "uint256"
        }
      ],
      "stateMutability": "view",
      "type": "function"
    },
    {
      "inputs": [],
      "name": "token",
      "outputs": [
        {
          "internalType": "contract Token",
          "name": "",
          "type": "address"
        }
      ],
      "stateMutability": "view",
      "type": "function"
    },
    {
      "inputs": [
        {
          "internalType": "uint256",
          "name": "_id",
          "type": "uint256"
        }
      ],
      "name": "vote",
      "outputs": [],
      "stateMutability": "nonpayable",
      "type": "function"
    },
    {
      "stateMutability": "payable",
      "type": "receive"
    }
  ],
  "bytecode": "0x60806040523480156200001157600080fd5b506040516200164438038062001644833981810160405281019062000037919062000180565b336000806101000a81548173ffffffffffffffffffffffffffffffffffffffff021916908373ffffffffffffffffffffffffffffffffffffffff16021790555081600160006101000a81548173ffffffffffffffffffffffffffffffffffffffff021916908373ffffffffffffffffffffffffffffffffffffffff160217905550806002819055505050620001c7565b600080fd5b600073ffffffffffffffffffffffffffffffffffffffff82169050919050565b6000620000f982620000cc565b9050919050565b60006200010d82620000ec565b9050919050565b6200011f8162000100565b81146200012b57600080fd5b50565b6000815190506200013f8162000114565b92915050565b6000819050919050565b6200015a8162000145565b81146200016657600080fd5b50565b6000815190506200017a816200014f565b92915050565b600080604083850312156200019a5762000199620000c7565b5b6000620001aa858286016200012e565b9250506020620001bd8582860162000169565b9150509250929050565b61146d80620001d76000396000f3fe6080604052600436106100745760003560e01c80635652077c1161004e5780635652077c146101165780636ac1e01f1461013f578063da35c66414610168578063fc0c546a146101935761007b565b80630121b93f14610080578063013cf08b146100a95780631703a018146100eb5761007b565b3661007b57005b600080fd5b34801561008c57600080fd5b506100a760048036038101906100a29190610be1565b6101be565b005b3480156100b557600080fd5b506100d060048036038101906100cb9190610be1565b6104cb565b6040516100e296959493929190610d12565b60405180910390f35b3480156100f757600080fd5b506101006105bc565b60405161010d9190610d7a565b60405180910390f35b34801561012257600080fd5b5061013d60048036038101906101389190610be1565b6105c2565b005b34801561014b57600080fd5b5061016660048036038101906101619190610ef6565b61086f565b005b34801561017457600080fd5b5061017d610ac8565b60405161018a9190610d7a565b60405180910390f35b34801561019f57600080fd5b506101a8610ace565b6040516101b59190610fc4565b60405180910390f35b6000600160009054906101000a900473ffffffffffffffffffffffffffffffffffffffff1673ffffffffffffffffffffffffffffffffffffffff166370a08231336040518263ffffffff1660e01b815260040161021b9190611000565b60206040518083038186803b15801561023357600080fd5b505afa158015610247573d6000803e3d6000fd5b505050506040513d601f19601f8201168201806040525081019061026b9190611030565b116102ab576040517f08c379a00000000000000000000000000000000000000000000000000000000081526004016102a2906110a9565b60405180910390fd5b6000600460008381526020019081526020016000209050600560003373ffffffffffffffffffffffffffffffffffffffff1673ffffffffffffffffffffffffffffffffffffffff168152602001908152602001600020600083815260200190815260200160002060009054906101000a900460ff1615610360576040517f08c379a000000000000000000000000000000000000000000000000000000000815260040161035790611115565b60405180910390fd5b600160009054906101000a900473ffffffffffffffffffffffffffffffffffffffff1673ffffffffffffffffffffffffffffffffffffffff166370a08231336040518263ffffffff1660e01b81526004016103bb9190611000565b60206040518083038186803b1580156103d357600080fd5b505afa1580156103e7573d6000803e3d6000fd5b505050506040513d601f19601f8201168201806040525081019061040b9190611030565b81600401600082825461041e9190611164565b925050819055506001600560003373ffffffffffffffffffffffffffffffffffffffff1673ffffffffffffffffffffffffffffffffffffffff168152602001908152602001600020600084815260200190815260200160002060006101000a81548160ff0219169083151502179055507f10a412bf229fbac2408912cb271b8ff9eb39eb72da91dd0c8accab0fb101113582336040516104bf9291906111ba565b60405180910390a15050565b60046020528060005260406000206000915090508060000154908060010180546104f490611212565b80601f016020809104026020016040519081016040528092919081815260200182805461052090611212565b801561056d5780601f106105425761010080835404028352916020019161056d565b820191906000526020600020905b81548152906001019060200180831161055057829003601f168201915b5050505050908060020154908060030160009054906101000a900473ffffffffffffffffffffffffffffffffffffffff16908060040154908060050160009054906101000a900460ff16905086565b60025481565b6000600160009054906101000a900473ffffffffffffffffffffffffffffffffffffffff1673ffffffffffffffffffffffffffffffffffffffff166370a08231336040518263ffffffff1660e01b815260040161061f9190611000565b60206040518083038186803b15801561063757600080fd5b505afa15801561064b573d6000803e3d6000fd5b505050506040513d601f19601f8201168201806040525081019061066f9190611030565b116106af576040517f08c379a00000000000000000000000000000000000000000000000000000000081526004016106a6906110a9565b60405180910390fd5b6000600460008381526020019081526020016000209050600015158160050160009054906101000a900460ff1615151461071e576040517f08c379a000000000000000000000000000000000000000000000000000000000815260040161071590611290565b60405180910390fd5b60018160050160006101000a81548160ff02191690831515021790555060025481600401541015610784576040517f08c379a000000000000000000000000000000000000000000000000000000000815260040161077b90611322565b60405180910390fd5b806002015447101561079557600080fd5b60008160030160009054906101000a900473ffffffffffffffffffffffffffffffffffffffff1673ffffffffffffffffffffffffffffffffffffffff1682600201546040516107e390611373565b60006040518083038185875af1925050503d8060008114610820576040519150601f19603f3d011682016040523d82523d6000602084013e610825565b606091505b505090508061083357600080fd5b7f5ab25e4916e9bcbaf83240dae72af1ebdcbe16d0bf417681ecbadab3ce031b96836040516108629190610d7a565b60405180910390a1505050565b6000600160009054906101000a900473ffffffffffffffffffffffffffffffffffffffff1673ffffffffffffffffffffffffffffffffffffffff166370a08231336040518263ffffffff1660e01b81526004016108cc9190611000565b60206040518083038186803b1580156108e457600080fd5b505afa1580156108f8573d6000803e3d6000fd5b505050506040513d601f19601f8201168201806040525081019061091c9190611030565b1161095c576040517f08c379a0000000000000000000000000000000000000000000000000000000008152600401610953906110a9565b60405180910390fd5b8147101561096957600080fd5b6003600081548092919061097c90611388565b91905055506040518060c0016040528060035481526020018481526020018381526020018273ffffffffffffffffffffffffffffffffffffffff1681526020016000815260200160001515815250600460006003548152602001908152602001600020600082015181600001556020820151816001019080519060200190610a05929190610af4565b506040820151816002015560608201518160030160006101000a81548173ffffffffffffffffffffffffffffffffffffffff021916908373ffffffffffffffffffffffffffffffffffffffff1602179055506080820151816004015560a08201518160050160006101000a81548160ff0219169083151502179055509050507f5d6db6436a5b28a57d1da09453738de00ce608dc5b223cdcb6cfcbe04d272d46600354838333604051610abb94939291906113f2565b60405180910390a1505050565b60035481565b600160009054906101000a900473ffffffffffffffffffffffffffffffffffffffff1681565b828054610b0090611212565b90600052602060002090601f016020900481019282610b225760008555610b69565b82601f10610b3b57805160ff1916838001178555610b69565b82800160010185558215610b69579182015b82811115610b68578251825591602001919060010190610b4d565b5b509050610b769190610b7a565b5090565b5b80821115610b93576000816000905550600101610b7b565b5090565b6000604051905090565b600080fd5b600080fd5b6000819050919050565b610bbe81610bab565b8114610bc957600080fd5b50565b600081359050610bdb81610bb5565b92915050565b600060208284031215610bf757610bf6610ba1565b5b6000610c0584828501610bcc565b91505092915050565b610c1781610bab565b82525050565b600081519050919050565b600082825260208201905092915050565b60005b83811015610c57578082015181840152602081019050610c3c565b83811115610c66576000848401525b50505050565b6000601f19601f8301169050919050565b6000610c8882610c1d565b610c928185610c28565b9350610ca2818560208601610c39565b610cab81610c6c565b840191505092915050565b600073ffffffffffffffffffffffffffffffffffffffff82169050919050565b6000610ce182610cb6565b9050919050565b610cf181610cd6565b82525050565b60008115159050919050565b610d0c81610cf7565b82525050565b600060c082019050610d276000830189610c0e565b8181036020830152610d398188610c7d565b9050610d486040830187610c0e565b610d556060830186610ce8565b610d626080830185610c0e565b610d6f60a0830184610d03565b979650505050505050565b6000602082019050610d8f6000830184610c0e565b92915050565b600080fd5b600080fd5b7f4e487b7100000000000000000000000000000000000000000000000000000000600052604160045260246000fd5b610dd782610c6c565b810181811067ffffffffffffffff82111715610df657610df5610d9f565b5b80604052505050565b6000610e09610b97565b9050610e158282610dce565b919050565b600067ffffffffffffffff821115610e3557610e34610d9f565b5b610e3e82610c6c565b9050602081019050919050565b82818337600083830152505050565b6000610e6d610e6884610e1a565b610dff565b905082815260208101848484011115610e8957610e88610d9a565b5b610e94848285610e4b565b509392505050565b600082601f830112610eb157610eb0610d95565b5b8135610ec1848260208601610e5a565b91505092915050565b610ed381610cd6565b8114610ede57600080fd5b50565b600081359050610ef081610eca565b92915050565b600080600060608486031215610f0f57610f0e610ba1565b5b600084013567ffffffffffffffff811115610f2d57610f2c610ba6565b5b610f3986828701610e9c565b9350506020610f4a86828701610bcc565b9250506040610f5b86828701610ee1565b9150509250925092565b6000819050919050565b6000610f8a610f85610f8084610cb6565b610f65565b610cb6565b9050919050565b6000610f9c82610f6f565b9050919050565b6000610fae82610f91565b9050919050565b610fbe81610fa3565b82525050565b6000602082019050610fd96000830184610fb5565b92915050565b6000610fea82610cb6565b9050919050565b610ffa81610fdf565b82525050565b60006020820190506110156000830184610ff1565b92915050565b60008151905061102a81610bb5565b92915050565b60006020828403121561104657611045610ba1565b5b60006110548482850161101b565b91505092915050565b7f6d75737420626520746f6b656e20686f6c646572000000000000000000000000600082015250565b6000611093601483610c28565b915061109e8261105d565b602082019050919050565b600060208201905081810360008301526110c281611086565b9050919050565b7f616c726561647920766f74656400000000000000000000000000000000000000600082015250565b60006110ff600d83610c28565b915061110a826110c9565b602082019050919050565b6000602082019050818103600083015261112e816110f2565b9050919050565b7f4e487b7100000000000000000000000000000000000000000000000000000000600052601160045260246000fd5b600061116f82610bab565b915061117a83610bab565b9250827fffffffffffffffffffffffffffffffffffffffffffffffffffffffffffffffff038211156111af576111ae611135565b5b828201905092915050565b60006040820190506111cf6000830185610c0e565b6111dc6020830184610ff1565b9392505050565b7f4e487b7100000000000000000000000000000000000000000000000000000000600052602260045260246000fd5b6000600282049050600182168061122a57607f821691505b6020821081141561123e5761123d6111e3565b5b50919050565b7f70726f706f73616c20616c72656164792066696e616c697a6564000000000000600082015250565b600061127a601a83610c28565b915061128582611244565b602082019050919050565b600060208201905081810360008301526112a98161126d565b9050919050565b7f6d7573742072656163682071756f72756d20746f2066696e616c697a6520707260008201527f6f706f73616c0000000000000000000000000000000000000000000000000000602082015250565b600061130c602683610c28565b9150611317826112b0565b604082019050919050565b6000602082019050818103600083015261133b816112ff565b9050919050565b600081905092915050565b50565b600061135d600083611342565b91506113688261134d565b600082019050919050565b600061137e82611350565b9150819050919050565b600061139382610bab565b91507fffffffffffffffffffffffffffffffffffffffffffffffffffffffffffffffff8214156113c6576113c5611135565b5b600182019050919050565b60006113dc82610f91565b9050919050565b6113ec816113d1565b82525050565b60006080820190506114076000830187610c0e565b6114146020830186610c0e565b61142160408301856113e3565b61142e6060830184610ff1565b9594505050505056fea2646970667358221220fc29b3987b30494366570e79a635c03e384193e3f8f2039c818d3d74e1c79d5964736f6c63430008090033",
  "linkReferences": {},
  "deployedLinkReferences": {}
}